{
  "address": "0x83b1dfC81645D0f8EC8cA09169127843E576d703",
  "abi": [
    {
      "inputs": [
        {
          "internalType": "address",
          "name": "_usdc",
          "type": "address"
        },
        {
          "internalType": "address",
          "name": "_gasReceiver",
          "type": "address"
        },
        {
          "internalType": "address",
          "name": "_gateway",
          "type": "address"
        },
        {
          "internalType": "address",
          "name": "_TokenMessenger",
          "type": "address"
        }
      ],
      "stateMutability": "nonpayable",
      "type": "constructor"
    },
    {
      "inputs": [],
      "name": "AlreadyForecalled",
      "type": "error"
    },
    {
      "inputs": [],
      "name": "InsufficientInput",
      "type": "error"
    },
    {
      "inputs": [],
      "name": "InvalidTrade",
      "type": "error"
    },
    {
      "inputs": [],
      "name": "NotApprovedByGateway",
      "type": "error"
    },
    {
      "inputs": [],
      "name": "TradeFailed",
      "type": "error"
    },
    {
      "inputs": [],
      "name": "TransferFailed",
      "type": "error"
    },
    {
      "anonymous": false,
      "inputs": [
        {
          "indexed": true,
          "internalType": "address",
          "name": "previousOwner",
          "type": "address"
        },
        {
          "indexed": true,
          "internalType": "address",
          "name": "newOwner",
          "type": "address"
        }
      ],
      "name": "OwnershipTransferred",
      "type": "event"
    },
    {
      "anonymous": false,
      "inputs": [
        {
          "indexed": true,
          "internalType": "bytes32",
          "name": "traceId",
          "type": "bytes32"
        },
        {
          "indexed": false,
          "internalType": "uint256",
          "name": "amount",
          "type": "uint256"
        },
        {
          "indexed": false,
          "internalType": "address",
          "name": "refundAddress",
          "type": "address"
        }
      ],
      "name": "SwapFailed",
      "type": "event"
    },
    {
      "anonymous": false,
      "inputs": [
        {
          "indexed": true,
          "internalType": "bytes32",
          "name": "traceId",
          "type": "bytes32"
        },
        {
          "indexed": true,
          "internalType": "bytes32",
          "name": "payloadHash",
          "type": "bytes32"
        },
        {
          "indexed": false,
          "internalType": "uint256",
          "name": "amount",
          "type": "uint256"
        },
        {
          "indexed": false,
          "internalType": "string",
          "name": "destinationChain",
          "type": "string"
        },
        {
          "indexed": false,
          "internalType": "bytes",
          "name": "payload",
          "type": "bytes"
        }
      ],
      "name": "SwapPending",
      "type": "event"
    },
    {
      "anonymous": false,
      "inputs": [
        {
          "indexed": true,
          "internalType": "bytes32",
          "name": "traceId",
          "type": "bytes32"
        },
        {
          "indexed": false,
          "internalType": "uint256",
          "name": "amount",
          "type": "uint256"
        },
        {
          "indexed": false,
          "internalType": "bytes",
          "name": "tradeData",
          "type": "bytes"
        }
      ],
      "name": "SwapSuccess",
      "type": "event"
    },
    {
      "inputs": [
        {
          "internalType": "string",
          "name": "chain_",
          "type": "string"
        },
        {
          "internalType": "address",
          "name": "address_",
          "type": "address"
        }
      ],
      "name": "addSibling",
      "outputs": [],
      "stateMutability": "nonpayable",
      "type": "function"
    },
    {
      "inputs": [
        {
          "internalType": "uint256",
          "name": "amount",
          "type": "uint256"
        },
        {
          "internalType": "bytes",
          "name": "",
          "type": "bytes"
        }
      ],
      "name": "amountPostFee",
      "outputs": [
        {
          "internalType": "uint256",
          "name": "",
          "type": "uint256"
        }
      ],
      "stateMutability": "nonpayable",
      "type": "function"
    },
    {
      "inputs": [
        {
          "internalType": "string",
          "name": "",
          "type": "string"
        }
      ],
      "name": "circleDestinationDomains",
      "outputs": [
        {
          "internalType": "uint32",
          "name": "",
          "type": "uint32"
        }
      ],
      "stateMutability": "view",
      "type": "function"
    },
    {
      "inputs": [
        {
          "internalType": "bytes32",
          "name": "commandId",
          "type": "bytes32"
        },
        {
          "internalType": "string",
          "name": "sourceChain",
          "type": "string"
        },
        {
          "internalType": "string",
          "name": "sourceAddress",
          "type": "string"
        },
        {
          "internalType": "bytes",
          "name": "payload",
          "type": "bytes"
        }
      ],
      "name": "execute",
      "outputs": [],
      "stateMutability": "nonpayable",
      "type": "function"
    },
    {
      "inputs": [
        {
          "internalType": "bytes32",
          "name": "commandId",
          "type": "bytes32"
        },
        {
          "internalType": "string",
          "name": "sourceChain",
          "type": "string"
        },
        {
          "internalType": "string",
          "name": "sourceAddress",
          "type": "string"
        },
        {
          "internalType": "bytes",
          "name": "payload",
          "type": "bytes"
        },
        {
          "internalType": "string",
          "name": "tokenSymbol",
          "type": "string"
        },
        {
          "internalType": "uint256",
          "name": "amount",
          "type": "uint256"
        }
      ],
      "name": "executeWithToken",
      "outputs": [],
      "stateMutability": "nonpayable",
      "type": "function"
    },
    {
      "inputs": [
        {
          "internalType": "string",
          "name": "sourceChain",
          "type": "string"
        },
        {
          "internalType": "string",
          "name": "sourceAddress",
          "type": "string"
        },
        {
          "internalType": "bytes",
          "name": "payload",
          "type": "bytes"
        },
        {
          "internalType": "address",
          "name": "forecaller",
          "type": "address"
        }
      ],
      "name": "forecall",
      "outputs": [],
      "stateMutability": "nonpayable",
      "type": "function"
    },
    {
      "inputs": [
        {
          "internalType": "string",
          "name": "sourceChain",
          "type": "string"
        },
        {
          "internalType": "string",
          "name": "sourceAddress",
          "type": "string"
        },
        {
          "internalType": "bytes",
          "name": "payload",
          "type": "bytes"
        },
        {
          "internalType": "string",
          "name": "tokenSymbol",
          "type": "string"
        },
        {
          "internalType": "uint256",
          "name": "amount",
          "type": "uint256"
        },
        {
          "internalType": "address",
          "name": "forecaller",
          "type": "address"
        }
      ],
      "name": "forecallWithToken",
      "outputs": [],
      "stateMutability": "nonpayable",
      "type": "function"
    },
    {
      "inputs": [],
      "name": "gateway",
      "outputs": [
        {
          "internalType": "contract IAxelarGateway",
          "name": "",
          "type": "address"
        }
      ],
      "stateMutability": "view",
      "type": "function"
    },
    {
      "inputs": [
        {
          "internalType": "string",
          "name": "destinationChain",
          "type": "string"
        },
        {
          "internalType": "bytes",
          "name": "srcTradeData",
          "type": "bytes"
        },
        {
          "internalType": "bytes",
          "name": "destTradeData",
          "type": "bytes"
        },
        {
          "internalType": "bytes32",
          "name": "traceId",
          "type": "bytes32"
        },
        {
          "internalType": "address",
          "name": "fallbackRecipient",
          "type": "address"
        },
        {
          "internalType": "uint16",
          "name": "inputPos",
          "type": "uint16"
        }
      ],
      "name": "nativeTradeSendTrade",
      "outputs": [],
      "stateMutability": "payable",
      "type": "function"
    },
    {
      "inputs": [],
      "name": "owner",
      "outputs": [
        {
          "internalType": "address",
          "name": "",
          "type": "address"
        }
      ],
      "stateMutability": "view",
      "type": "function"
    },
    {
      "inputs": [],
      "name": "renounceOwnership",
      "outputs": [],
      "stateMutability": "nonpayable",
      "type": "function"
    },
    {
      "inputs": [
        {
          "internalType": "string",
          "name": "",
          "type": "string"
        }
      ],
      "name": "siblings",
      "outputs": [
        {
          "internalType": "address",
          "name": "",
          "type": "address"
        }
      ],
      "stateMutability": "view",
      "type": "function"
    },
    {
      "inputs": [],
      "name": "tokenMessenger",
      "outputs": [
        {
          "internalType": "contract ITokenMessenger",
          "name": "",
          "type": "address"
        }
      ],
      "stateMutability": "view",
      "type": "function"
    },
    {
      "inputs": [
        {
          "internalType": "address",
          "name": "newOwner",
          "type": "address"
        }
      ],
      "name": "transferOwnership",
      "outputs": [],
      "stateMutability": "nonpayable",
      "type": "function"
    },
    {
      "inputs": [],
      "name": "usdc",
      "outputs": [
        {
          "internalType": "contract IERC20",
          "name": "",
          "type": "address"
        }
      ],
      "stateMutability": "view",
      "type": "function"
    }
  ],
  "transactionHash": "0x5c85c294ec1c56d146a03d3e8a776e5b5712a5cc015cf1402e7d74d1b29e2b29",
  "args": [
    "0x5425890298aed601595a70ab815c96711a31bc65",
    "0xbE406F0189A0B4cf3A05C286473D23791Dd44Cc6",
    "0xC249632c2D40b9001FE907806902f63038B737Ab",
    "0xeb08f243e5d3fcff26a9e38ae5520a669f4019d0"
  ],
  "numDeployments": 7,
  "solcInputHash": "2f42bb348ec2c5d84a4c0ae877dde207",
  "bytecode": "0x60a06040523480156200001157600080fd5b50604051620048053803806200480583398181016040528101906200003791906200030d565b81806000806101000a81548173ffffffffffffffffffffffffffffffffffffffff021916908373ffffffffffffffffffffffffffffffffffffffff16021790555050620000996200008d620001d560201b60201c565b620001dd60201b60201c565b83600360006101000a81548173ffffffffffffffffffffffffffffffffffffffff021916908373ffffffffffffffffffffffffffffffffffffffff16021790555080600460006101000a81548173ffffffffffffffffffffffffffffffffffffffff021916908373ffffffffffffffffffffffffffffffffffffffff1602179055508273ffffffffffffffffffffffffffffffffffffffff1660808173ffffffffffffffffffffffffffffffffffffffff1681525050600060056040516200016190620003da565b908152602001604051809103902060006101000a81548163ffffffff021916908363ffffffff160217905550600160056040516200019f9062000441565b908152602001604051809103902060006101000a81548163ffffffff021916908363ffffffff1602179055505050505062000458565b600033905090565b6000600260009054906101000a900473ffffffffffffffffffffffffffffffffffffffff16905081600260006101000a81548173ffffffffffffffffffffffffffffffffffffffff021916908373ffffffffffffffffffffffffffffffffffffffff1602179055508173ffffffffffffffffffffffffffffffffffffffff168173ffffffffffffffffffffffffffffffffffffffff167f8be0079c531659141344cd1fd0a4f28419497f9722a3daafe3b4186f6b6457e060405160405180910390a35050565b600080fd5b600073ffffffffffffffffffffffffffffffffffffffff82169050919050565b6000620002d582620002a8565b9050919050565b620002e781620002c8565b8114620002f357600080fd5b50565b6000815190506200030781620002dc565b92915050565b600080600080608085870312156200032a5762000329620002a3565b5b60006200033a87828801620002f6565b94505060206200034d87828801620002f6565b93505060406200036087828801620002f6565b92505060606200037387828801620002f6565b91505092959194509250565b600081905092915050565b7f657468657265756d000000000000000000000000000000000000000000000000600082015250565b6000620003c26008836200037f565b9150620003cf826200038a565b600882019050919050565b6000620003e782620003b3565b9150819050919050565b7f6176616c616e6368650000000000000000000000000000000000000000000000600082015250565b6000620004296009836200037f565b91506200043682620003f1565b600982019050919050565b60006200044e826200041a565b9150819050919050565b608051614391620004746000396000611ce801526143916000f3fe6080604052600436106100e85760003560e01c8063715018a61161008a578063bb288a0311610059578063bb288a03146102e2578063daa0c9171461030b578063e7fb058b14610327578063f2fde38b14610350576100e8565b8063715018a6146102265780638b5ba9c81461023d5780638da5cb5b1461027a578063a7798b69146102a5576100e8565b80633ca2fd8e116100c65780633ca2fd8e1461016a5780633e413bee146101a757806346117830146101d257806349160658146101fd576100e8565b80630b48ae86146100ed578063116191b6146101165780631a98b2e014610141575b600080fd5b3480156100f957600080fd5b50610114600480360381019061010f919061299c565b610379565b005b34801561012257600080fd5b5061012b6103e2565b6040516101389190612a57565b60405180910390f35b34801561014d57600080fd5b5061016860048036038101906101639190612b94565b610406565b005b34801561017657600080fd5b50610191600480360381019061018c9190612ca4565b6107e8565b60405161019e9190612d13565b60405180910390f35b3480156101b357600080fd5b506101bc6107f4565b6040516101c99190612d4f565b60405180910390f35b3480156101de57600080fd5b506101e761081a565b6040516101f49190612d8b565b60405180910390f35b34801561020957600080fd5b50610224600480360381019061021f9190612da6565b610840565b005b34801561023257600080fd5b5061023b610b0b565b005b34801561024957600080fd5b50610264600480360381019061025f9190612e6f565b610b1f565b6040516102719190612ed7565b60405180910390f35b34801561028657600080fd5b5061028f610b58565b60405161029c9190612f01565b60405180910390f35b3480156102b157600080fd5b506102cc60048036038101906102c79190612e6f565b610b82565b6040516102d99190612f01565b60405180910390f35b3480156102ee57600080fd5b5061030960048036038101906103049190612f1c565b610bcb565b005b610325600480360381019061032091906130c0565b610dc2565b005b34801561033357600080fd5b5061034e600480360381019061034991906131a1565b610fd8565b005b34801561035c57600080fd5b50610377600480360381019061037291906132b1565b6112f3565b005b610381611377565b806006836040516103929190613358565b908152602001604051809103902060006101000a81548173ffffffffffffffffffffffffffffffffffffffff021916908373ffffffffffffffffffffffffffffffffffffffff1602179055505050565b60008054906101000a900473ffffffffffffffffffffffffffffffffffffffff1681565b6000858560405161041892919061339f565b6040518091039020905060008054906101000a900473ffffffffffffffffffffffffffffffffffffffff1673ffffffffffffffffffffffffffffffffffffffff16631876eed98c8c8c8c8c878b8b8b6040518a63ffffffff1660e01b815260040161048b99989796959493929190613405565b602060405180830381600087803b1580156104a557600080fd5b505af11580156104b9573d6000803e3d6000fd5b505050506040513d601f19601f820116820180604052508101906104dd91906134b9565b610513576040517f500c44b400000000000000000000000000000000000000000000000000000000815260040160405180910390fd5b6000600160008c8c8c8c8c8c8c8c8c60405160200161053a99989796959493929190613524565b60405160208183030381529060405280519060200120815260200190815260200160002060009054906101000a900473ffffffffffffffffffffffffffffffffffffffff169050600073ffffffffffffffffffffffffffffffffffffffff168173ffffffffffffffffffffffffffffffffffffffff16146106ff576000600160008d8d8d8d8d8d8d8d8d6040516020016105dc99989796959493929190613524565b60405160208183030381529060405280519060200120815260200190815260200160002060006101000a81548173ffffffffffffffffffffffffffffffffffffffff021916908373ffffffffffffffffffffffffffffffffffffffff16021790555060008060009054906101000a900473ffffffffffffffffffffffffffffffffffffffff1673ffffffffffffffffffffffffffffffffffffffff1663935b13f687876040518363ffffffff1660e01b815260040161069c92919061359b565b60206040518083038186803b1580156106b457600080fd5b505afa1580156106c8573d6000803e3d6000fd5b505050506040513d601f19601f820116820180604052508101906106ec91906135d4565b90506106f98183866113f5565b506107da565b6107d98b8b8080601f016020809104026020016040519081016040528093929190818152602001838380828437600081840152601f19601f820116905080830192505050505050508a8a8080601f016020809104026020016040519081016040528093929190818152602001838380828437600081840152601f19601f82011690508083019250505050505050898989898080601f016020809104026020016040519081016040528093929190818152602001838380828437600081840152601f19601f820116905080830192505050505050508861156b565b5b505050505050505050505050565b60008390509392505050565b600360009054906101000a900473ffffffffffffffffffffffffffffffffffffffff1681565b600460009054906101000a900473ffffffffffffffffffffffffffffffffffffffff1681565b6000828260405161085292919061339f565b6040518091039020905060008054906101000a900473ffffffffffffffffffffffffffffffffffffffff1673ffffffffffffffffffffffffffffffffffffffff16635f6970c38989898989876040518763ffffffff1660e01b81526004016108bf96959493929190613601565b602060405180830381600087803b1580156108d957600080fd5b505af11580156108ed573d6000803e3d6000fd5b505050506040513d601f19601f8201168201806040525081019061091191906134b9565b610947576040517f500c44b400000000000000000000000000000000000000000000000000000000815260040160405180910390fd5b60006001600089898989898960405160200161096896959493929190613658565b60405160208183030381529060405280519060200120815260200190815260200160002060009054906101000a900473ffffffffffffffffffffffffffffffffffffffff169050600073ffffffffffffffffffffffffffffffffffffffff168173ffffffffffffffffffffffffffffffffffffffff1614610a6b576000600160008a8a8a8a8a8a604051602001610a0496959493929190613658565b60405160208183030381529060405280519060200120815260200190815260200160002060006101000a81548173ffffffffffffffffffffffffffffffffffffffff021916908373ffffffffffffffffffffffffffffffffffffffff160217905550610b00565b610aff88888080601f016020809104026020016040519081016040528093929190818152602001838380828437600081840152601f19601f8201169050808301925050505050505087878080601f016020809104026020016040519081016040528093929190818152602001838380828437600081840152601f19601f820116905080830192505050505050508686611573565b5b505050505050505050565b610b13611377565b610b1d600061171c565b565b6005818051602081018201805184825260208301602085012081835280955050505050506000915054906101000a900463ffffffff1681565b6000600260009054906101000a900473ffffffffffffffffffffffffffffffffffffffff16905090565b6006818051602081018201805184825260208301602085012081835280955050505050506000915054906101000a900473ffffffffffffffffffffffffffffffffffffffff1681565b610bda878787878787876117e2565b600073ffffffffffffffffffffffffffffffffffffffff1660016000898989898989604051602001610c1196959493929190613658565b60405160208183030381529060405280519060200120815260200190815260200160002060009054906101000a900473ffffffffffffffffffffffffffffffffffffffff1673ffffffffffffffffffffffffffffffffffffffff1614610ca3576040517f35b7d55000000000000000000000000000000000000000000000000000000000815260040160405180910390fd5b8060016000898989898989604051602001610cc396959493929190613658565b60405160208183030381529060405280519060200120815260200190815260200160002060006101000a81548173ffffffffffffffffffffffffffffffffffffffff021916908373ffffffffffffffffffffffffffffffffffffffff160217905550610db987878080601f016020809104026020016040519081016040528093929190818152602001838380828437600081840152601f19601f8201169050808301925050505050505086868080601f016020809104026020016040519081016040528093929190818152602001838380828437600081840152601f19601f820116905080830192505050505050508585611573565b50505050505050565b85604051602001610dd2906136f6565b6040516020818303038152906040528051906020012081604051602001610df99190613358565b604051602081830303815290604052805190602001201480610e645750604051602001610e2590613757565b6040516020818303038152906040528051906020012081604051602001610e4c9190613358565b60405160208183030381529060405280519060200120145b610ea3576040517f08c379a0000000000000000000000000000000000000000000000000000000008152600401610e9a906137b8565b60405180910390fd5b600080610eaf886117eb565b91509150610f46818a3073ffffffffffffffffffffffffffffffffffffffff1663a7798b698d6040518263ffffffff1660e01b8152600401610ef19190613811565b60206040518083038186803b158015610f0957600080fd5b505afa158015610f1d573d6000803e3d6000fd5b505050506040513d601f19601f82011682018060405250810190610f4191906135d4565b6119b6565b60008782888888604051602001610f61959493929190613886565b6040516020818303038152906040529050610f888a828534610f83919061390f565b611ce6565b8080519060200120877f603f384676075b3ec165d26daed675db50dfd83d03f3d12e2eecad1a52da8221848d85604051610fc493929190613943565b60405180910390a350505050505050505050565b60008060009054906101000a900473ffffffffffffffffffffffffffffffffffffffff1673ffffffffffffffffffffffffffffffffffffffff1663935b13f686866040518363ffffffff1660e01b815260040161103692919061359b565b60206040518083038186803b15801561104e57600080fd5b505afa158015611062573d6000803e3d6000fd5b505050506040513d601f19601f8201168201806040525081019061108691906135d4565b905060006110958489896107e8565b90506110a2823383611f2e565b6110b48c8c8c8c8c8c8c8c8c8c6120a6565b600073ffffffffffffffffffffffffffffffffffffffff16600160008e8e8e8e8e8e8e8e8e6040516020016110f199989796959493929190613524565b60405160208183030381529060405280519060200120815260200190815260200160002060009054906101000a900473ffffffffffffffffffffffffffffffffffffffff1673ffffffffffffffffffffffffffffffffffffffff1614611183576040517f35b7d55000000000000000000000000000000000000000000000000000000000815260040160405180910390fd5b82600160008e8e8e8e8e8e8e8e8e6040516020016111a999989796959493929190613524565b60405160208183030381529060405280519060200120815260200190815260200160002060006101000a81548173ffffffffffffffffffffffffffffffffffffffff021916908373ffffffffffffffffffffffffffffffffffffffff1602179055506112e58c8c8080601f016020809104026020016040519081016040528093929190818152602001838380828437600081840152601f19601f820116905080830192505050505050508b8b8080601f016020809104026020016040519081016040528093929190818152602001838380828437600081840152601f19601f820116905080830192505050505050508a8a8a8a8080601f016020809104026020016040519081016040528093929190818152602001838380828437600081840152601f19601f820116905080830192505050505050508661156b565b505050505050505050505050565b6112fb611377565b600073ffffffffffffffffffffffffffffffffffffffff168173ffffffffffffffffffffffffffffffffffffffff16141561136b576040517f08c379a0000000000000000000000000000000000000000000000000000000008152600401611362906139fa565b60405180910390fd5b6113748161171c565b50565b61137f6120b2565b73ffffffffffffffffffffffffffffffffffffffff1661139d610b58565b73ffffffffffffffffffffffffffffffffffffffff16146113f3576040517f08c379a00000000000000000000000000000000000000000000000000000000081526004016113ea90613a66565b60405180910390fd5b565b6000808473ffffffffffffffffffffffffffffffffffffffff1663a9059cbb60e01b858560405160240161142a929190613a86565b604051602081830303815290604052907bffffffffffffffffffffffffffffffffffffffffffffffffffffffff19166020820180517bffffffffffffffffffffffffffffffffffffffffffffffffffffffff83818316178352505050506040516114949190613ae0565b6000604051808303816000865af19150503d80600081146114d1576040519150601f19603f3d011682016040523d82523d6000602084013e6114d6565b606091505b50915091506000828015611506575060008251148061150557508180602001905181019061150491906134b9565b5b5b905080158061152c575060008673ffffffffffffffffffffffffffffffffffffffff163b145b15611563576040517f90b8ec1800000000000000000000000000000000000000000000000000000000815260040160405180910390fd5b505050505050565b505050505050565b6000806000806000868681019061158a9190613b35565b9450945094509450945083818601526000806000878060200190518101906115b29190613c66565b935093505092508273ffffffffffffffffffffffffffffffffffffffff1663095ea7b383896040518363ffffffff1660e01b81526004016115f4929190613a86565b602060405180830381600087803b15801561160e57600080fd5b505af1158015611622573d6000803e3d6000fd5b505050506040513d601f19601f8201168201806040525081019061164691906134b9565b5060008273ffffffffffffffffffffffffffffffffffffffff168260405161166e9190613ae0565b6000604051808303816000865af19150503d80600081146116ab576040519150601f19603f3d011682016040523d82523d6000602084013e6116b0565b606091505b50509050806116d2576116c48789886120ba565b505050505050505050611716565b867f2eee7242b494decec975364a3a68cc2983c8c343618698e44ca690103af76175898b604051611704929190613ce9565b60405180910390a25050505050505050505b50505050565b6000600260009054906101000a900473ffffffffffffffffffffffffffffffffffffffff16905081600260006101000a81548173ffffffffffffffffffffffffffffffffffffffff021916908373ffffffffffffffffffffffffffffffffffffffff1602179055508173ffffffffffffffffffffffffffffffffffffffff168173ffffffffffffffffffffffffffffffffffffffff167f8be0079c531659141344cd1fd0a4f28419497f9722a3daafe3b4186f6b6457e060405160405180910390a35050565b50505050505050565b6000806000600360009054906101000a900473ffffffffffffffffffffffffffffffffffffffff1673ffffffffffffffffffffffffffffffffffffffff166370a08231306040518263ffffffff1660e01b815260040161184b9190612f01565b60206040518083038186803b15801561186357600080fd5b505afa158015611877573d6000803e3d6000fd5b505050506040513d601f19601f8201168201806040525081019061189b9190613d19565b90506000806118a986612126565b91509150816118ed576040517f08c379a00000000000000000000000000000000000000000000000000000000081526004016118e490613d92565b60405180910390fd5b600083600360009054906101000a900473ffffffffffffffffffffffffffffffffffffffff1673ffffffffffffffffffffffffffffffffffffffff166370a08231306040518263ffffffff1660e01b815260040161194b9190612f01565b60206040518083038186803b15801561196357600080fd5b505afa158015611977573d6000803e3d6000fd5b505050506040513d601f19601f8201168201806040525081019061199b9190613d19565b6119a5919061390f565b905081819550955050505050915091565b816040516020016119c6906136f6565b60405160208183030381529060405280519060200120816040516020016119ed9190613358565b604051602081830303815290604052805190602001201480611a585750604051602001611a1990613757565b6040516020818303038152906040528051906020012081604051602001611a409190613358565b60405160208183030381529060405280519060200120145b611a97576040517f08c379a0000000000000000000000000000000000000000000000000000000008152600401611a8e906137b8565b60405180910390fd5b600360009054906101000a900473ffffffffffffffffffffffffffffffffffffffff1673ffffffffffffffffffffffffffffffffffffffff1663095ea7b3600460009054906101000a900473ffffffffffffffffffffffffffffffffffffffff16866040518363ffffffff1660e01b8152600401611b16929190613a86565b602060405180830381600087803b158015611b3057600080fd5b505af1158015611b44573d6000803e3d6000fd5b505050506040513d601f19601f82011682018060405250810190611b6891906134b9565b50600460009054906101000a900473ffffffffffffffffffffffffffffffffffffffff1673ffffffffffffffffffffffffffffffffffffffff16636fd3504e853073ffffffffffffffffffffffffffffffffffffffff16638b5ba9c8876040518263ffffffff1660e01b8152600401611be19190613811565b60206040518083038186803b158015611bf957600080fd5b505afa158015611c0d573d6000803e3d6000fd5b505050506040513d601f19601f82011682018060405250810190611c319190613dde565b8573ffffffffffffffffffffffffffffffffffffffff1660001b600360009054906101000a900473ffffffffffffffffffffffffffffffffffffffff166040518563ffffffff1660e01b8152600401611c8d9493929190613e0b565b602060405180830381600087803b158015611ca757600080fd5b505af1158015611cbb573d6000803e3d6000fd5b505050506040513d601f19601f82011682018060405250810190611cdf9190613e90565b5050505050565b7f000000000000000000000000000000000000000000000000000000000000000073ffffffffffffffffffffffffffffffffffffffff16630c93e3bb823086611db63073ffffffffffffffffffffffffffffffffffffffff1663a7798b698a6040518263ffffffff1660e01b8152600401611d619190613811565b60206040518083038186803b158015611d7957600080fd5b505afa158015611d8d573d6000803e3d6000fd5b505050506040513d601f19601f82011682018060405250810190611db191906135d4565b6121c4565b87336040518763ffffffff1660e01b8152600401611dd8959493929190613ebd565b6000604051808303818588803b158015611df157600080fd5b505af1158015611e05573d6000803e3d6000fd5b505050505060008054906101000a900473ffffffffffffffffffffffffffffffffffffffff1673ffffffffffffffffffffffffffffffffffffffff16631c92115f84611ed83073ffffffffffffffffffffffffffffffffffffffff1663a7798b69886040518263ffffffff1660e01b8152600401611e839190613811565b60206040518083038186803b158015611e9b57600080fd5b505afa158015611eaf573d6000803e3d6000fd5b505050506040513d601f19601f82011682018060405250810190611ed391906135d4565b6121c4565b856040518463ffffffff1660e01b8152600401611ef793929190613f25565b600060405180830381600087803b158015611f1157600080fd5b505af1158015611f25573d6000803e3d6000fd5b50505050505050565b6000808473ffffffffffffffffffffffffffffffffffffffff166323b872dd60e01b853086604051602401611f6593929190613f71565b604051602081830303815290604052907bffffffffffffffffffffffffffffffffffffffffffffffffffffffff19166020820180517bffffffffffffffffffffffffffffffffffffffffffffffffffffffff8381831617835250505050604051611fcf9190613ae0565b6000604051808303816000865af19150503d806000811461200c576040519150601f19603f3d011682016040523d82523d6000602084013e612011565b606091505b50915091506000828015612041575060008251148061204057508180602001905181019061203f91906134b9565b5b5b9050801580612067575060008673ffffffffffffffffffffffffffffffffffffffff163b145b1561209e576040517f90b8ec1800000000000000000000000000000000000000000000000000000000815260040160405180910390fd5b505050505050565b50505050505050505050565b600033905090565b6120e7600360009054906101000a900473ffffffffffffffffffffffffffffffffffffffff1682846124e1565b827f558c0ee8c786238cf77a23150b8f030420c53c82aa0488213ace44ee1cfc92f48383604051612119929190613fa8565b60405180910390a2505050565b6000806000806000858060200190518101906121429190613fd1565b9250925092508173ffffffffffffffffffffffffffffffffffffffff16838260405161216e9190613ae0565b60006040518083038185875af1925050503d80600081146121ab576040519150601f19603f3d011682016040523d82523d6000602084013e6121b0565b606091505b505080955050848394509450505050915091565b60606000826040516020016121d99190614088565b604051602081830303815290604052905060006040518060400160405280601081526020017f3031323334353637383961626364656600000000000000000000000000000000815250905060006002835161223491906140a3565b600261224091906140fd565b67ffffffffffffffff81111561225957612258612813565b5b6040519080825280601f01601f19166020018201604052801561228b5781602001600182028036833780820191505090505b5090507f3000000000000000000000000000000000000000000000000000000000000000816000815181106122c3576122c2614153565b5b60200101907effffffffffffffffffffffffffffffffffffffffffffffffffffffffffffff1916908160001a9053507f78000000000000000000000000000000000000000000000000000000000000008160018151811061232757612326614153565b5b60200101907effffffffffffffffffffffffffffffffffffffffffffffffffffffffffffff1916908160001a90535060005b83518110156124d55782600485838151811061237857612377614153565b5b602001015160f81c60f81b7effffffffffffffffffffffffffffffffffffffffffffffffffffffffffffff1916901c60f81c60ff16815181106123be576123bd614153565b5b602001015160f81c60f81b826002836123d791906140a3565b60026123e391906140fd565b815181106123f4576123f3614153565b5b60200101907effffffffffffffffffffffffffffffffffffffffffffffffffffffffffffff1916908160001a90535082600f60f81b85838151811061243c5761243b614153565b5b602001015160f81c60f81b1660f81c60ff168151811061245f5761245e614153565b5b602001015160f81c60f81b8260028361247891906140a3565b600361248491906140fd565b8151811061249557612494614153565b5b60200101907effffffffffffffffffffffffffffffffffffffffffffffffffffffffffffff1916908160001a905350806124ce90614182565b9050612359565b50809350505050919050565b6125628363a9059cbb60e01b8484604051602401612500929190613a86565b604051602081830303815290604052907bffffffffffffffffffffffffffffffffffffffffffffffffffffffff19166020820180517bffffffffffffffffffffffffffffffffffffffffffffffffffffffff8381831617835250505050612567565b505050565b60006125c9826040518060400160405280602081526020017f5361666545524332303a206c6f772d6c6576656c2063616c6c206661696c65648152508573ffffffffffffffffffffffffffffffffffffffff1661262e9092919063ffffffff16565b905060008151111561262957808060200190518101906125e991906134b9565b612628576040517f08c379a000000000000000000000000000000000000000000000000000000000815260040161261f9061423d565b60405180910390fd5b5b505050565b606061263d8484600085612646565b90509392505050565b60608247101561268b576040517f08c379a0000000000000000000000000000000000000000000000000000000008152600401612682906142cf565b60405180910390fd5b6126948561275a565b6126d3576040517f08c379a00000000000000000000000000000000000000000000000000000000081526004016126ca9061433b565b60405180910390fd5b6000808673ffffffffffffffffffffffffffffffffffffffff1685876040516126fc9190613ae0565b60006040518083038185875af1925050503d8060008114612739576040519150601f19603f3d011682016040523d82523d6000602084013e61273e565b606091505b509150915061274e82828661277d565b92505050949350505050565b6000808273ffffffffffffffffffffffffffffffffffffffff163b119050919050565b6060831561278d578290506127dd565b6000835111156127a05782518084602001fd5b816040517f08c379a00000000000000000000000000000000000000000000000000000000081526004016127d49190613811565b60405180910390fd5b9392505050565b6000604051905090565b600080fd5b600080fd5b600080fd5b600080fd5b6000601f19601f8301169050919050565b7f4e487b7100000000000000000000000000000000000000000000000000000000600052604160045260246000fd5b61284b82612802565b810181811067ffffffffffffffff8211171561286a57612869612813565b5b80604052505050565b600061287d6127e4565b90506128898282612842565b919050565b600067ffffffffffffffff8211156128a9576128a8612813565b5b6128b282612802565b9050602081019050919050565b82818337600083830152505050565b60006128e16128dc8461288e565b612873565b9050828152602081018484840111156128fd576128fc6127fd565b5b6129088482856128bf565b509392505050565b600082601f830112612925576129246127f8565b5b81356129358482602086016128ce565b91505092915050565b600073ffffffffffffffffffffffffffffffffffffffff82169050919050565b60006129698261293e565b9050919050565b6129798161295e565b811461298457600080fd5b50565b60008135905061299681612970565b92915050565b600080604083850312156129b3576129b26127ee565b5b600083013567ffffffffffffffff8111156129d1576129d06127f3565b5b6129dd85828601612910565b92505060206129ee85828601612987565b9150509250929050565b6000819050919050565b6000612a1d612a18612a138461293e565b6129f8565b61293e565b9050919050565b6000612a2f82612a02565b9050919050565b6000612a4182612a24565b9050919050565b612a5181612a36565b82525050565b6000602082019050612a6c6000830184612a48565b92915050565b6000819050919050565b612a8581612a72565b8114612a9057600080fd5b50565b600081359050612aa281612a7c565b92915050565b600080fd5b600080fd5b60008083601f840112612ac857612ac76127f8565b5b8235905067ffffffffffffffff811115612ae557612ae4612aa8565b5b602083019150836001820283011115612b0157612b00612aad565b5b9250929050565b60008083601f840112612b1e57612b1d6127f8565b5b8235905067ffffffffffffffff811115612b3b57612b3a612aa8565b5b602083019150836001820283011115612b5757612b56612aad565b5b9250929050565b6000819050919050565b612b7181612b5e565b8114612b7c57600080fd5b50565b600081359050612b8e81612b68565b92915050565b60008060008060008060008060008060c08b8d031215612bb757612bb66127ee565b5b6000612bc58d828e01612a93565b9a505060208b013567ffffffffffffffff811115612be657612be56127f3565b5b612bf28d828e01612ab2565b995099505060408b013567ffffffffffffffff811115612c1557612c146127f3565b5b612c218d828e01612ab2565b975097505060608b013567ffffffffffffffff811115612c4457612c436127f3565b5b612c508d828e01612b08565b955095505060808b013567ffffffffffffffff811115612c7357612c726127f3565b5b612c7f8d828e01612ab2565b935093505060a0612c928d828e01612b7f565b9150509295989b9194979a5092959850565b600080600060408486031215612cbd57612cbc6127ee565b5b6000612ccb86828701612b7f565b935050602084013567ffffffffffffffff811115612cec57612ceb6127f3565b5b612cf886828701612b08565b92509250509250925092565b612d0d81612b5e565b82525050565b6000602082019050612d286000830184612d04565b92915050565b6000612d3982612a24565b9050919050565b612d4981612d2e565b82525050565b6000602082019050612d646000830184612d40565b92915050565b6000612d7582612a24565b9050919050565b612d8581612d6a565b82525050565b6000602082019050612da06000830184612d7c565b92915050565b60008060008060008060006080888a031215612dc557612dc46127ee565b5b6000612dd38a828b01612a93565b975050602088013567ffffffffffffffff811115612df457612df36127f3565b5b612e008a828b01612ab2565b9650965050604088013567ffffffffffffffff811115612e2357612e226127f3565b5b612e2f8a828b01612ab2565b9450945050606088013567ffffffffffffffff811115612e5257612e516127f3565b5b612e5e8a828b01612b08565b925092505092959891949750929550565b600060208284031215612e8557612e846127ee565b5b600082013567ffffffffffffffff811115612ea357612ea26127f3565b5b612eaf84828501612910565b91505092915050565b600063ffffffff82169050919050565b612ed181612eb8565b82525050565b6000602082019050612eec6000830184612ec8565b92915050565b612efb8161295e565b82525050565b6000602082019050612f166000830184612ef2565b92915050565b60008060008060008060006080888a031215612f3b57612f3a6127ee565b5b600088013567ffffffffffffffff811115612f5957612f586127f3565b5b612f658a828b01612ab2565b9750975050602088013567ffffffffffffffff811115612f8857612f876127f3565b5b612f948a828b01612ab2565b9550955050604088013567ffffffffffffffff811115612fb757612fb66127f3565b5b612fc38a828b01612b08565b93509350506060612fd68a828b01612987565b91505092959891949750929550565b600067ffffffffffffffff82111561300057612fff612813565b5b61300982612802565b9050602081019050919050565b600061302961302484612fe5565b612873565b905082815260208101848484011115613045576130446127fd565b5b6130508482856128bf565b509392505050565b600082601f83011261306d5761306c6127f8565b5b813561307d848260208601613016565b91505092915050565b600061ffff82169050919050565b61309d81613086565b81146130a857600080fd5b50565b6000813590506130ba81613094565b92915050565b60008060008060008060c087890312156130dd576130dc6127ee565b5b600087013567ffffffffffffffff8111156130fb576130fa6127f3565b5b61310789828a01612910565b965050602087013567ffffffffffffffff811115613128576131276127f3565b5b61313489828a01613058565b955050604087013567ffffffffffffffff811115613155576131546127f3565b5b61316189828a01613058565b945050606061317289828a01612a93565b935050608061318389828a01612987565b92505060a061319489828a016130ab565b9150509295509295509295565b60008060008060008060008060008060c08b8d0312156131c4576131c36127ee565b5b60008b013567ffffffffffffffff8111156131e2576131e16127f3565b5b6131ee8d828e01612ab2565b9a509a505060208b013567ffffffffffffffff811115613211576132106127f3565b5b61321d8d828e01612ab2565b985098505060408b013567ffffffffffffffff8111156132405761323f6127f3565b5b61324c8d828e01612b08565b965096505060608b013567ffffffffffffffff81111561326f5761326e6127f3565b5b61327b8d828e01612ab2565b9450945050608061328e8d828e01612b7f565b92505060a061329f8d828e01612987565b9150509295989b9194979a5092959850565b6000602082840312156132c7576132c66127ee565b5b60006132d584828501612987565b91505092915050565b600081519050919050565b600081905092915050565b60005b838110156133125780820151818401526020810190506132f7565b83811115613321576000848401525b50505050565b6000613332826132de565b61333c81856132e9565b935061334c8185602086016132f4565b80840191505092915050565b60006133648284613327565b915081905092915050565b600081905092915050565b6000613386838561336f565b93506133938385846128bf565b82840190509392505050565b60006133ac82848661337a565b91508190509392505050565b6133c181612a72565b82525050565b600082825260208201905092915050565b60006133e483856133c7565b93506133f18385846128bf565b6133fa83612802565b840190509392505050565b600060c08201905061341a600083018c6133b8565b818103602083015261342d818a8c6133d8565b9050818103604083015261344281888a6133d8565b905061345160608301876133b8565b81810360808301526134648185876133d8565b905061347360a0830184612d04565b9a9950505050505050505050565b60008115159050919050565b61349681613481565b81146134a157600080fd5b50565b6000815190506134b38161348d565b92915050565b6000602082840312156134cf576134ce6127ee565b5b60006134dd848285016134a4565b91505092915050565b600082825260208201905092915050565b600061350383856134e6565b93506135108385846128bf565b61351983612802565b840190509392505050565b600060a082019050818103600083015261353f818b8d6133d8565b9050818103602083015261355481898b6133d8565b905081810360408301526135698187896134f7565b9050818103606083015261357e8185876133d8565b905061358d6080830184612d04565b9a9950505050505050505050565b600060208201905081810360008301526135b68184866133d8565b90509392505050565b6000815190506135ce81612970565b92915050565b6000602082840312156135ea576135e96127ee565b5b60006135f8848285016135bf565b91505092915050565b600060808201905061361660008301896133b8565b81810360208301526136298187896133d8565b9050818103604083015261363e8185876133d8565b905061364d60608301846133b8565b979650505050505050565b6000606082019050818103600083015261367381888a6133d8565b905081810360208301526136888186886133d8565b9050818103604083015261369d8184866134f7565b9050979650505050505050565b7f657468657265756d2d3200000000000000000000000000000000000000000000600082015250565b60006136e0600a836132e9565b91506136eb826136aa565b600a82019050919050565b6000613701826136d3565b9150819050919050565b7f6176616c616e6368650000000000000000000000000000000000000000000000600082015250565b60006137416009836132e9565b915061374c8261370b565b600982019050919050565b600061376282613734565b9150819050919050565b7f496e76616c696420636861696e00000000000000000000000000000000000000600082015250565b60006137a2600d836133c7565b91506137ad8261376c565b602082019050919050565b600060208201905081810360008301526137d181613795565b9050919050565b60006137e3826132de565b6137ed81856133c7565b93506137fd8185602086016132f4565b61380681612802565b840191505092915050565b6000602082019050818103600083015261382b81846137d8565b905092915050565b600081519050919050565b600061384982613833565b61385381856134e6565b93506138638185602086016132f4565b61386c81612802565b840191505092915050565b61388081613086565b82525050565b600060a08201905081810360008301526138a0818861383e565b90506138af6020830187612d04565b6138bc60408301866133b8565b6138c96060830185612ef2565b6138d66080830184613877565b9695505050505050565b7f4e487b7100000000000000000000000000000000000000000000000000000000600052601160045260246000fd5b600061391a82612b5e565b915061392583612b5e565b925082821015613938576139376138e0565b5b828203905092915050565b60006060820190506139586000830186612d04565b818103602083015261396a81856137d8565b9050818103604083015261397e818461383e565b9050949350505050565b7f4f776e61626c653a206e6577206f776e657220697320746865207a65726f206160008201527f6464726573730000000000000000000000000000000000000000000000000000602082015250565b60006139e46026836133c7565b91506139ef82613988565b604082019050919050565b60006020820190508181036000830152613a13816139d7565b9050919050565b7f4f776e61626c653a2063616c6c6572206973206e6f7420746865206f776e6572600082015250565b6000613a506020836133c7565b9150613a5b82613a1a565b602082019050919050565b60006020820190508181036000830152613a7f81613a43565b9050919050565b6000604082019050613a9b6000830185612ef2565b613aa86020830184612d04565b9392505050565b6000613aba82613833565b613ac4818561336f565b9350613ad48185602086016132f4565b80840191505092915050565b6000613aec8284613aaf565b915081905092915050565b6000613b028261293e565b9050919050565b613b1281613af7565b8114613b1d57600080fd5b50565b600081359050613b2f81613b09565b92915050565b600080600080600060a08688031215613b5157613b506127ee565b5b600086013567ffffffffffffffff811115613b6f57613b6e6127f3565b5b613b7b88828901613058565b9550506020613b8c88828901612b7f565b9450506040613b9d88828901612a93565b9350506060613bae88828901613b20565b9250506080613bbf888289016130ab565b9150509295509295909350565b600081519050613bdb81613b09565b92915050565b600081519050613bf081612b68565b92915050565b6000613c09613c0484612fe5565b612873565b905082815260208101848484011115613c2557613c246127fd565b5b613c308482856132f4565b509392505050565b600082601f830112613c4d57613c4c6127f8565b5b8151613c5d848260208601613bf6565b91505092915050565b60008060008060808587031215613c8057613c7f6127ee565b5b6000613c8e87828801613bcc565b9450506020613c9f87828801613be1565b9350506040613cb087828801613bcc565b925050606085015167ffffffffffffffff811115613cd157613cd06127f3565b5b613cdd87828801613c38565b91505092959194509250565b6000604082019050613cfe6000830185612d04565b8181036020830152613d10818461383e565b90509392505050565b600060208284031215613d2f57613d2e6127ee565b5b6000613d3d84828501613be1565b91505092915050565b7f54524144455f4641494c45440000000000000000000000000000000000000000600082015250565b6000613d7c600c836133c7565b9150613d8782613d46565b602082019050919050565b60006020820190508181036000830152613dab81613d6f565b9050919050565b613dbb81612eb8565b8114613dc657600080fd5b50565b600081519050613dd881613db2565b92915050565b600060208284031215613df457613df36127ee565b5b6000613e0284828501613dc9565b91505092915050565b6000608082019050613e206000830187612d04565b613e2d6020830186612ec8565b613e3a60408301856133b8565b613e476060830184612ef2565b95945050505050565b600067ffffffffffffffff82169050919050565b613e6d81613e50565b8114613e7857600080fd5b50565b600081519050613e8a81613e64565b92915050565b600060208284031215613ea657613ea56127ee565b5b6000613eb484828501613e7b565b91505092915050565b600060a082019050613ed26000830188612ef2565b8181036020830152613ee481876137d8565b90508181036040830152613ef881866137d8565b90508181036060830152613f0c818561383e565b9050613f1b6080830184612ef2565b9695505050505050565b60006060820190508181036000830152613f3f81866137d8565b90508181036020830152613f5381856137d8565b90508181036040830152613f67818461383e565b9050949350505050565b6000606082019050613f866000830186612ef2565b613f936020830185612ef2565b613fa06040830184612d04565b949350505050565b6000604082019050613fbd6000830185612d04565b613fca6020830184612ef2565b9392505050565b600080600060608486031215613fea57613fe96127ee565b5b6000613ff886828701613be1565b935050602061400986828701613bcc565b925050604084015167ffffffffffffffff81111561402a576140296127f3565b5b61403686828701613c38565b9150509250925092565b60008160601b9050919050565b600061405882614040565b9050919050565b600061406a8261404d565b9050919050565b61408261407d8261295e565b61405f565b82525050565b60006140948284614071565b60148201915081905092915050565b60006140ae82612b5e565b91506140b983612b5e565b9250817fffffffffffffffffffffffffffffffffffffffffffffffffffffffffffffffff04831182151516156140f2576140f16138e0565b5b828202905092915050565b600061410882612b5e565b915061411383612b5e565b9250827fffffffffffffffffffffffffffffffffffffffffffffffffffffffffffffffff03821115614148576141476138e0565b5b828201905092915050565b7f4e487b7100000000000000000000000000000000000000000000000000000000600052603260045260246000fd5b600061418d82612b5e565b91507fffffffffffffffffffffffffffffffffffffffffffffffffffffffffffffffff8214156141c0576141bf6138e0565b5b600182019050919050565b7f5361666545524332303a204552433230206f7065726174696f6e20646964206e60008201527f6f74207375636365656400000000000000000000000000000000000000000000602082015250565b6000614227602a836133c7565b9150614232826141cb565b604082019050919050565b600060208201905081810360008301526142568161421a565b9050919050565b7f416464726573733a20696e73756666696369656e742062616c616e636520666f60008201527f722063616c6c0000000000000000000000000000000000000000000000000000602082015250565b60006142b96026836133c7565b91506142c48261425d565b604082019050919050565b600060208201905081810360008301526142e8816142ac565b9050919050565b7f416464726573733a2063616c6c20746f206e6f6e2d636f6e7472616374000000600082015250565b6000614325601d836133c7565b9150614330826142ef565b602082019050919050565b6000602082019050818103600083015261435481614318565b905091905056fea2646970667358221220ec23047fcaf4af91e81d2e8b8fcc3d3f34182e2712b5cb16afedf1544cf5a09064736f6c63430008090033",
  "devdoc": {
    "kind": "dev",
    "methods": {
      "nativeTradeSendTrade(string,bytes,bytes,bytes32,address,uint16)": {
        "details": "Swap native token to USDC, burn it, and send swap payload to AxelarGateway contract",
        "params": {
          "destTradeData": "Trade data for the second swap",
          "destinationChain": "Name of the destination chain",
          "fallbackRecipient": "Recipient address to receive USDC token if the swap fails",
          "inputPos": "Position of the input token in destTradeData",
          "srcTradeData": "Trade data for the first swap",
          "traceId": "Trace ID of the swap"
        }
      },
      "owner()": {
        "details": "Returns the address of the current owner."
      },
      "renounceOwnership()": {
        "details": "Leaves the contract without owner. It will not be possible to call `onlyOwner` functions anymore. Can only be called by the current owner. NOTE: Renouncing ownership will leave the contract without an owner, thereby removing any functionality that is only available to the owner."
      },
      "transferOwnership(address)": {
        "details": "Transfers ownership of the contract to a new account (`newOwner`). Can only be called by the current owner."
      }
    },
    "version": 1
  },
  "userdoc": {
    "kind": "user",
    "methods": {},
    "version": 1
  },
  "storageLayout": {
    "storage": [
      {
        "astId": 14,
        "contract": "contracts/CrosschainNativeSwap.sol:CrosschainNativeSwap",
        "label": "gateway",
        "offset": 0,
        "slot": "0",
        "type": "t_contract(IAxelarGateway)1097"
      },
      {
        "astId": 18,
        "contract": "contracts/CrosschainNativeSwap.sol:CrosschainNativeSwap",
        "label": "forecallers",
        "offset": 0,
        "slot": "1",
        "type": "t_mapping(t_bytes32,t_address)"
      },
      {
        "astId": 1237,
        "contract": "contracts/CrosschainNativeSwap.sol:CrosschainNativeSwap",
        "label": "_owner",
        "offset": 0,
        "slot": "2",
        "type": "t_address"
      },
      {
        "astId": 2078,
        "contract": "contracts/CrosschainNativeSwap.sol:CrosschainNativeSwap",
        "label": "usdc",
        "offset": 0,
        "slot": "3",
        "type": "t_contract(IERC20)1420"
      },
      {
        "astId": 2081,
        "contract": "contracts/CrosschainNativeSwap.sol:CrosschainNativeSwap",
        "label": "tokenMessenger",
        "offset": 0,
        "slot": "4",
        "type": "t_contract(ITokenMessenger)2636"
      },
      {
        "astId": 2088,
        "contract": "contracts/CrosschainNativeSwap.sol:CrosschainNativeSwap",
        "label": "circleDestinationDomains",
        "offset": 0,
        "slot": "5",
        "type": "t_mapping(t_string_memory_ptr,t_uint32)"
      },
      {
        "astId": 2092,
        "contract": "contracts/CrosschainNativeSwap.sol:CrosschainNativeSwap",
        "label": "siblings",
        "offset": 0,
        "slot": "6",
        "type": "t_mapping(t_string_memory_ptr,t_address)"
      }
    ],
    "types": {
      "t_address": {
        "encoding": "inplace",
        "label": "address",
        "numberOfBytes": "20"
      },
      "t_bytes32": {
        "encoding": "inplace",
        "label": "bytes32",
        "numberOfBytes": "32"
      },
      "t_contract(IAxelarGateway)1097": {
        "encoding": "inplace",
        "label": "contract IAxelarGateway",
        "numberOfBytes": "20"
      },
      "t_contract(IERC20)1420": {
        "encoding": "inplace",
        "label": "contract IERC20",
        "numberOfBytes": "20"
      },
      "t_contract(ITokenMessenger)2636": {
        "encoding": "inplace",
        "label": "contract ITokenMessenger",
        "numberOfBytes": "20"
      },
      "t_mapping(t_bytes32,t_address)": {
        "encoding": "mapping",
        "key": "t_bytes32",
        "label": "mapping(bytes32 => address)",
        "numberOfBytes": "32",
        "value": "t_address"
      },
      "t_mapping(t_string_memory_ptr,t_address)": {
        "encoding": "mapping",
        "key": "t_string_memory_ptr",
        "label": "mapping(string => address)",
        "numberOfBytes": "32",
        "value": "t_address"
      },
      "t_mapping(t_string_memory_ptr,t_uint32)": {
        "encoding": "mapping",
        "key": "t_string_memory_ptr",
        "label": "mapping(string => uint32)",
        "numberOfBytes": "32",
        "value": "t_uint32"
      },
      "t_string_memory_ptr": {
        "encoding": "bytes",
        "label": "string",
        "numberOfBytes": "32"
      },
      "t_uint32": {
        "encoding": "inplace",
        "label": "uint32",
        "numberOfBytes": "4"
      }
    }
  }
}